{
  "_format": "hh-sol-artifact-1",
  "contractName": "CemeteryManager",
  "sourceName": "contracts/CemeteryManager.sol",
  "abi": [
    {
      "inputs": [],
      "stateMutability": "nonpayable",
      "type": "constructor"
    },
    {
      "anonymous": false,
      "inputs": [
        {
          "indexed": true,
          "internalType": "uint256",
          "name": "graveId",
          "type": "uint256"
        },
        {
          "indexed": true,
          "internalType": "address",
          "name": "payer",
          "type": "address"
        },
        {
          "indexed": true,
          "internalType": "address",
          "name": "recipient",
          "type": "address"
        },
        {
          "indexed": false,
          "internalType": "uint256",
          "name": "amount",
          "type": "uint256"
        }
      ],
      "name": "FeePaid",
      "type": "event"
    },
    {
      "anonymous": false,
      "inputs": [
        {
          "indexed": true,
          "internalType": "address",
          "name": "owner",
          "type": "address"
        },
        {
          "indexed": false,
          "internalType": "uint256",
          "name": "amount",
          "type": "uint256"
        }
      ],
      "name": "FundsWithdrawn",
      "type": "event"
    },
    {
      "anonymous": false,
      "inputs": [
        {
          "indexed": true,
          "internalType": "uint256",
          "name": "graveId",
          "type": "uint256"
        },
        {
          "indexed": true,
          "internalType": "uint256",
          "name": "graveyardId",
          "type": "uint256"
        },
        {
          "indexed": false,
          "internalType": "uint256",
          "name": "price",
          "type": "uint256"
        },
        {
          "indexed": false,
          "internalType": "string",
          "name": "locationHash",
          "type": "string"
        }
      ],
      "name": "GraveAdded",
      "type": "event"
    },
    {
      "anonymous": false,
      "inputs": [
        {
          "indexed": true,
          "internalType": "uint256",
          "name": "graveId",
          "type": "uint256"
        },
        {
          "indexed": false,
          "internalType": "uint256",
          "name": "timestamp",
          "type": "uint256"
        }
      ],
      "name": "GraveMaintained",
      "type": "event"
    },
    {
      "anonymous": false,
      "inputs": [
        {
          "indexed": true,
          "internalType": "uint256",
          "name": "graveId",
          "type": "uint256"
        },
        {
          "indexed": true,
          "internalType": "address",
          "name": "reservedBy",
          "type": "address"
        },
        {
          "indexed": false,
          "internalType": "uint256",
          "name": "price",
          "type": "uint256"
        },
        {
          "indexed": false,
          "internalType": "uint256",
          "name": "timestamp",
          "type": "uint256"
        }
      ],
      "name": "GraveReserved",
      "type": "event"
    },
    {
      "anonymous": false,
      "inputs": [
        {
          "indexed": true,
          "internalType": "uint256",
          "name": "graveyardId",
          "type": "uint256"
        },
        {
          "indexed": true,
          "internalType": "address",
          "name": "owner",
          "type": "address"
        },
        {
          "indexed": false,
          "internalType": "string",
          "name": "name",
          "type": "string"
        },
        {
          "indexed": false,
          "internalType": "string",
          "name": "location",
          "type": "string"
        }
      ],
      "name": "GraveyardAdded",
      "type": "event"
    },
    {
      "anonymous": false,
      "inputs": [
        {
          "indexed": true,
          "internalType": "uint256",
          "name": "graveyardId",
          "type": "uint256"
        },
        {
          "indexed": false,
          "internalType": "bool",
          "name": "active",
          "type": "bool"
        }
      ],
      "name": "GraveyardStatusChanged",
      "type": "event"
    },
    {
      "anonymous": false,
      "inputs": [
        {
          "indexed": true,
          "internalType": "uint256",
          "name": "graveId",
          "type": "uint256"
        },
        {
          "indexed": false,
          "internalType": "string",
          "name": "newMetadataHash",
          "type": "string"
        }
      ],
      "name": "MetadataUpdated",
      "type": "event"
    },
    {
      "anonymous": false,
      "inputs": [
        {
          "indexed": true,
          "internalType": "bytes32",
          "name": "role",
          "type": "bytes32"
        },
        {
          "indexed": true,
          "internalType": "bytes32",
          "name": "previousAdminRole",
          "type": "bytes32"
        },
        {
          "indexed": true,
          "internalType": "bytes32",
          "name": "newAdminRole",
          "type": "bytes32"
        }
      ],
      "name": "RoleAdminChanged",
      "type": "event"
    },
    {
      "anonymous": false,
      "inputs": [
        {
          "indexed": true,
          "internalType": "bytes32",
          "name": "role",
          "type": "bytes32"
        },
        {
          "indexed": true,
          "internalType": "address",
          "name": "account",
          "type": "address"
        },
        {
          "indexed": true,
          "internalType": "address",
          "name": "sender",
          "type": "address"
        }
      ],
      "name": "RoleGranted",
      "type": "event"
    },
    {
      "anonymous": false,
      "inputs": [
        {
          "indexed": true,
          "internalType": "bytes32",
          "name": "role",
          "type": "bytes32"
        },
        {
          "indexed": true,
          "internalType": "address",
          "name": "account",
          "type": "address"
        },
        {
          "indexed": true,
          "internalType": "address",
          "name": "sender",
          "type": "address"
        }
      ],
      "name": "RoleRevoked",
      "type": "event"
    },
    {
      "inputs": [],
      "name": "ADMIN_ROLE",
      "outputs": [
        {
          "internalType": "bytes32",
          "name": "",
          "type": "bytes32"
        }
      ],
      "stateMutability": "view",
      "type": "function"
    },
    {
      "inputs": [],
      "name": "DEFAULT_ADMIN_ROLE",
      "outputs": [
        {
          "internalType": "bytes32",
          "name": "",
          "type": "bytes32"
        }
      ],
      "stateMutability": "view",
      "type": "function"
    },
    {
      "inputs": [],
      "name": "GRAVEYARD_MANAGER_ROLE",
      "outputs": [
        {
          "internalType": "bytes32",
          "name": "",
          "type": "bytes32"
        }
      ],
      "stateMutability": "view",
      "type": "function"
    },
    {
      "inputs": [
        {
          "internalType": "uint256",
          "name": "_graveyardId",
          "type": "uint256"
        },
        {
          "internalType": "uint256",
          "name": "_price",
          "type": "uint256"
        },
        {
          "internalType": "string",
          "name": "_locationHash",
          "type": "string"
        }
      ],
      "name": "addGrave",
      "outputs": [],
      "stateMutability": "nonpayable",
      "type": "function"
    },
    {
      "inputs": [
        {
          "internalType": "uint256",
          "name": "_graveyardId",
          "type": "uint256"
        },
        {
          "internalType": "uint256[]",
          "name": "_prices",
          "type": "uint256[]"
        },
        {
          "internalType": "string[]",
          "name": "_locationHashes",
          "type": "string[]"
        }
      ],
      "name": "addGravesBatch",
      "outputs": [],
      "stateMutability": "nonpayable",
      "type": "function"
    },
    {
      "inputs": [
        {
          "internalType": "address",
          "name": "_owner",
          "type": "address"
        },
        {
          "internalType": "string",
          "name": "_name",
          "type": "string"
        },
        {
          "internalType": "string",
          "name": "_location",
          "type": "string"
        },
        {
          "internalType": "uint256",
          "name": "_numPlots",
          "type": "uint256"
        }
      ],
      "name": "addGraveyard",
      "outputs": [],
      "stateMutability": "nonpayable",
      "type": "function"
    },
    {
      "inputs": [
        {
          "internalType": "uint256",
          "name": "_graveyardId",
          "type": "uint256"
        }
      ],
      "name": "getAvailableGraves",
      "outputs": [
        {
          "internalType": "uint256[]",
          "name": "",
          "type": "uint256[]"
        }
      ],
      "stateMutability": "view",
      "type": "function"
    },
    {
      "inputs": [
        {
          "internalType": "uint256",
          "name": "_graveId",
          "type": "uint256"
        }
      ],
      "name": "getGrave",
      "outputs": [
        {
          "components": [
            {
              "internalType": "uint256",
              "name": "id",
              "type": "uint256"
            },
            {
              "internalType": "uint256",
              "name": "graveyardId",
              "type": "uint256"
            },
            {
              "internalType": "address",
              "name": "owner",
              "type": "address"
            },
            {
              "internalType": "uint256",
              "name": "price",
              "type": "uint256"
            },
            {
              "internalType": "bool",
              "name": "reserved",
              "type": "bool"
            },
            {
              "internalType": "bool",
              "name": "maintained",
              "type": "bool"
            },
            {
              "internalType": "string",
              "name": "locationHash",
              "type": "string"
            },
            {
              "internalType": "string",
              "name": "metadataHash",
              "type": "string"
            },
            {
              "internalType": "uint256",
              "name": "timestamp",
              "type": "uint256"
            }
          ],
          "internalType": "struct CemeteryManager.Grave",
          "name": "",
          "type": "tuple"
        }
      ],
      "stateMutability": "view",
      "type": "function"
    },
    {
      "inputs": [
        {
          "internalType": "uint256",
          "name": "_graveyardId",
          "type": "uint256"
        }
      ],
      "name": "getGraveyard",
      "outputs": [
        {
          "components": [
            {
              "internalType": "uint256",
              "name": "id",
              "type": "uint256"
            },
            {
              "internalType": "address",
              "name": "owner",
              "type": "address"
            },
            {
              "internalType": "string",
              "name": "name",
              "type": "string"
            },
            {
              "internalType": "string",
              "name": "location",
              "type": "string"
            },
            {
              "internalType": "uint256",
              "name": "numPlots",
              "type": "uint256"
            },
            {
              "internalType": "uint256[]",
              "name": "graveIds",
              "type": "uint256[]"
            },
            {
              "internalType": "bool",
              "name": "active",
              "type": "bool"
            }
          ],
          "internalType": "struct CemeteryManager.Graveyard",
          "name": "",
          "type": "tuple"
        }
      ],
      "stateMutability": "view",
      "type": "function"
    },
    {
      "inputs": [
        {
          "internalType": "uint256",
          "name": "_graveyardId",
          "type": "uint256"
        }
      ],
      "name": "getGraveyardGraves",
      "outputs": [
        {
          "internalType": "uint256[]",
          "name": "",
          "type": "uint256[]"
        }
      ],
      "stateMutability": "view",
      "type": "function"
    },
    {
      "inputs": [
        {
          "internalType": "address",
          "name": "_owner",
          "type": "address"
        }
      ],
      "name": "getPendingWithdrawal",
      "outputs": [
        {
          "internalType": "uint256",
          "name": "",
          "type": "uint256"
        }
      ],
      "stateMutability": "view",
      "type": "function"
    },
    {
      "inputs": [
        {
          "internalType": "bytes32",
          "name": "role",
          "type": "bytes32"
        }
      ],
      "name": "getRoleAdmin",
      "outputs": [
        {
          "internalType": "bytes32",
          "name": "",
          "type": "bytes32"
        }
      ],
      "stateMutability": "view",
      "type": "function"
    },
    {
      "inputs": [],
      "name": "getTotalGraves",
      "outputs": [
        {
          "internalType": "uint256",
          "name": "",
          "type": "uint256"
        }
      ],
      "stateMutability": "view",
      "type": "function"
    },
    {
      "inputs": [],
      "name": "getTotalGraveyards",
      "outputs": [
        {
          "internalType": "uint256",
          "name": "",
          "type": "uint256"
        }
      ],
      "stateMutability": "view",
      "type": "function"
    },
    {
      "inputs": [
        {
          "internalType": "address",
          "name": "_user",
          "type": "address"
        }
      ],
      "name": "getUserGraves",
      "outputs": [
        {
          "internalType": "uint256[]",
          "name": "",
          "type": "uint256[]"
        }
      ],
      "stateMutability": "view",
      "type": "function"
    },
    {
      "inputs": [
        {
          "internalType": "address",
          "name": "account",
          "type": "address"
        }
      ],
      "name": "grantAdminRole",
      "outputs": [],
      "stateMutability": "nonpayable",
      "type": "function"
    },
    {
      "inputs": [
        {
          "internalType": "address",
          "name": "account",
          "type": "address"
        }
      ],
      "name": "grantGraveyardManagerRole",
      "outputs": [],
      "stateMutability": "nonpayable",
      "type": "function"
    },
    {
      "inputs": [
        {
          "internalType": "bytes32",
          "name": "role",
          "type": "bytes32"
        },
        {
          "internalType": "address",
          "name": "account",
          "type": "address"
        }
      ],
      "name": "grantRole",
      "outputs": [],
      "stateMutability": "nonpayable",
      "type": "function"
    },
    {
      "inputs": [
        {
          "internalType": "uint256",
          "name": "",
          "type": "uint256"
        }
      ],
      "name": "graveToGraveyard",
      "outputs": [
        {
          "internalType": "uint256",
          "name": "",
          "type": "uint256"
        }
      ],
      "stateMutability": "view",
      "type": "function"
    },
    {
      "inputs": [
        {
          "internalType": "uint256",
          "name": "",
          "type": "uint256"
        }
      ],
      "name": "graves",
      "outputs": [
        {
          "internalType": "uint256",
          "name": "id",
          "type": "uint256"
        },
        {
          "internalType": "uint256",
          "name": "graveyardId",
          "type": "uint256"
        },
        {
          "internalType": "address",
          "name": "owner",
          "type": "address"
        },
        {
          "internalType": "uint256",
          "name": "price",
          "type": "uint256"
        },
        {
          "internalType": "bool",
          "name": "reserved",
          "type": "bool"
        },
        {
          "internalType": "bool",
          "name": "maintained",
          "type": "bool"
        },
        {
          "internalType": "string",
          "name": "locationHash",
          "type": "string"
        },
        {
          "internalType": "string",
          "name": "metadataHash",
          "type": "string"
        },
        {
          "internalType": "uint256",
          "name": "timestamp",
          "type": "uint256"
        }
      ],
      "stateMutability": "view",
      "type": "function"
    },
    {
      "inputs": [
        {
          "internalType": "uint256",
          "name": "",
          "type": "uint256"
        }
      ],
      "name": "graveyards",
      "outputs": [
        {
          "internalType": "uint256",
          "name": "id",
          "type": "uint256"
        },
        {
          "internalType": "address",
          "name": "owner",
          "type": "address"
        },
        {
          "internalType": "string",
          "name": "name",
          "type": "string"
        },
        {
          "internalType": "string",
          "name": "location",
          "type": "string"
        },
        {
          "internalType": "uint256",
          "name": "numPlots",
          "type": "uint256"
        },
        {
          "internalType": "bool",
          "name": "active",
          "type": "bool"
        }
      ],
      "stateMutability": "view",
      "type": "function"
    },
    {
      "inputs": [
        {
          "internalType": "bytes32",
          "name": "role",
          "type": "bytes32"
        },
        {
          "internalType": "address",
          "name": "account",
          "type": "address"
        }
      ],
      "name": "hasRole",
      "outputs": [
        {
          "internalType": "bool",
          "name": "",
          "type": "bool"
        }
      ],
      "stateMutability": "view",
      "type": "function"
    },
    {
      "inputs": [
        {
          "internalType": "address",
          "name": "account",
          "type": "address"
        }
      ],
      "name": "isAdmin",
      "outputs": [
        {
          "internalType": "bool",
          "name": "",
          "type": "bool"
        }
      ],
      "stateMutability": "view",
      "type": "function"
    },
    {
      "inputs": [
        {
          "internalType": "address",
          "name": "account",
          "type": "address"
        }
      ],
      "name": "isGraveyardManager",
      "outputs": [
        {
          "internalType": "bool",
          "name": "",
          "type": "bool"
        }
      ],
      "stateMutability": "view",
      "type": "function"
    },
    {
      "inputs": [
        {
          "internalType": "uint256",
          "name": "_graveId",
          "type": "uint256"
        }
      ],
      "name": "isReserved",
      "outputs": [
        {
          "internalType": "bool",
          "name": "",
          "type": "bool"
        }
      ],
      "stateMutability": "view",
      "type": "function"
    },
    {
      "inputs": [
        {
          "internalType": "uint256",
          "name": "_graveId",
          "type": "uint256"
        }
      ],
      "name": "maintainGrave",
      "outputs": [],
      "stateMutability": "nonpayable",
      "type": "function"
    },
    {
      "inputs": [
        {
          "internalType": "address",
          "name": "",
          "type": "address"
        }
      ],
      "name": "pendingWithdrawals",
      "outputs": [
        {
          "internalType": "uint256",
          "name": "",
          "type": "uint256"
        }
      ],
      "stateMutability": "view",
      "type": "function"
    },
    {
      "inputs": [
        {
          "internalType": "bytes32",
          "name": "role",
          "type": "bytes32"
        },
        {
          "internalType": "address",
          "name": "account",
          "type": "address"
        }
      ],
      "name": "renounceRole",
      "outputs": [],
      "stateMutability": "nonpayable",
      "type": "function"
    },
    {
      "inputs": [
        {
          "internalType": "uint256",
          "name": "_graveId",
          "type": "uint256"
        },
        {
          "internalType": "string",
          "name": "_metadataHash",
          "type": "string"
        }
      ],
      "name": "reserveGrave",
      "outputs": [],
      "stateMutability": "payable",
      "type": "function"
    },
    {
      "inputs": [
        {
          "internalType": "address",
          "name": "account",
          "type": "address"
        }
      ],
      "name": "revokeAdminRole",
      "outputs": [],
      "stateMutability": "nonpayable",
      "type": "function"
    },
    {
      "inputs": [
        {
          "internalType": "bytes32",
          "name": "role",
          "type": "bytes32"
        },
        {
          "internalType": "address",
          "name": "account",
          "type": "address"
        }
      ],
      "name": "revokeRole",
      "outputs": [],
      "stateMutability": "nonpayable",
      "type": "function"
    },
    {
      "inputs": [
        {
          "internalType": "uint256",
          "name": "_graveyardId",
          "type": "uint256"
        },
        {
          "internalType": "bool",
          "name": "_active",
          "type": "bool"
        }
      ],
      "name": "setGraveyardStatus",
      "outputs": [],
      "stateMutability": "nonpayable",
      "type": "function"
    },
    {
      "inputs": [
        {
          "internalType": "bytes4",
          "name": "interfaceId",
          "type": "bytes4"
        }
      ],
      "name": "supportsInterface",
      "outputs": [
        {
          "internalType": "bool",
          "name": "",
          "type": "bool"
        }
      ],
      "stateMutability": "view",
      "type": "function"
    },
    {
      "inputs": [
        {
          "internalType": "uint256",
          "name": "_graveId",
          "type": "uint256"
        },
        {
          "internalType": "string",
          "name": "_newMetadataHash",
          "type": "string"
        }
      ],
      "name": "updateBurialRecord",
      "outputs": [],
      "stateMutability": "nonpayable",
      "type": "function"
    },
    {
      "inputs": [
        {
          "internalType": "address",
          "name": "",
          "type": "address"
        },
        {
          "internalType": "uint256",
          "name": "",
          "type": "uint256"
        }
      ],
      "name": "userGraves",
      "outputs": [
        {
          "internalType": "uint256",
          "name": "",
          "type": "uint256"
        }
      ],
      "stateMutability": "view",
      "type": "function"
    },
    {
      "inputs": [],
      "name": "withdraw",
      "outputs": [],
      "stateMutability": "nonpayable",
      "type": "function"
    }
  ],
  "bytecode": "0x60806040523480156200001157600080fd5b5060018055620000236000336200009f565b6200004f7fa49807205ce4d355092ef5a8a18f56e8913cf4a201fbe287825b095693c21775336200009f565b6200007b7f1ca18e4f40644e9556cd529acc99fc94235b73e5bafb1de212a869dc75d4bb91336200009f565b6200008a600280546001019055565b62000099600380546001019055565b62000140565b6000828152602081815260408083206001600160a01b038516845290915290205460ff166200013c576000828152602081815260408083206001600160a01b03851684529091529020805460ff19166001179055620000fb3390565b6001600160a01b0316816001600160a01b0316837f2f8788117e7eff1d82e926ec794901d17c78024a50270940304540a733656f0d60405160405180910390a45b5050565b61335380620001506000396000f3fe60806040526004361061020e5760003560e01c80637935893f11610118578063b71c9b58116100a0578063dba1cfe21161006f578063dba1cfe21461065a578063e1c3c9241461067a578063f34585ea146106af578063f3f43703146106e1578063fee69cbd1461070e57600080fd5b8063b71c9b58146105e5578063c634b78e14610605578063cd02dc5014610625578063d547741f1461063a57600080fd5b806390ed1178116100e757806390ed11781461054357806391d1485414610570578063947a0c16146105905780639a19c7b0146105b0578063a217fddf146105d057600080fd5b80637935893f146104a05780637bb941f9146104c05780637ee8b2f8146104ed5780637f01999b1461052357600080fd5b806336568abe1161019b5780634e970da51161016a5780634e970da5146103fe578063576881cc1461041e5780635b5c4ea4146104315780637459107f1461045157806375b238fc1461047e57600080fd5b806336568abe1461037557806337ae9eb514610395578063381ccb93146103c95780633ccfd60b146103e957600080fd5b8063248a9ca3116101e2578063248a9ca3146102aa57806324d7806c146102e85780632d224c64146103085780632f2ff15d1461032857806330ba6c7d1461034857600080fd5b8062da140b1461021357806301ffc9a7146102355780631dde78541461026a5780632228adcc1461028a575b600080fd5b34801561021f57600080fd5b5061023361022e36600461286b565b610723565b005b34801561024157600080fd5b506102556102503660046128be565b610a4d565b60405190151581526020015b60405180910390f35b34801561027657600080fd5b50610233610285366004612904565b610a84565b34801561029657600080fd5b506102556102a536600461298d565b610d40565b3480156102b657600080fd5b506102da6102c536600461298d565b60009081526020819052604090206001015490565b604051908152602001610261565b3480156102f457600080fd5b506102556103033660046129a6565b610d8e565b34801561031457600080fd5b506102da6103233660046129c1565b610da8565b34801561033457600080fd5b506102336103433660046129eb565b610dd9565b34801561035457600080fd5b5061036861036336600461298d565b610e03565b6040516102619190612a17565b34801561038157600080fd5b506102336103903660046129eb565b610e95565b3480156103a157600080fd5b506102da7f1ca18e4f40644e9556cd529acc99fc94235b73e5bafb1de212a869dc75d4bb9181565b3480156103d557600080fd5b506102336103e4366004612aa0565b610f13565b3480156103f557600080fd5b50610233611349565b34801561040a57600080fd5b506102556104193660046129a6565b611480565b61023361042c366004612b1a565b6114ac565b34801561043d57600080fd5b5061036861044c3660046129a6565b6116ef565b34801561045d57600080fd5b5061047161046c36600461298d565b611759565b6040516102619190612bb6565b34801561048a57600080fd5b506102da6000805160206132fe83398151915281565b3480156104ac57600080fd5b506102336104bb3660046129a6565b611989565b3480156104cc57600080fd5b506104e06104db36600461298d565b6119cb565b6040516102619190612c5f565b3480156104f957600080fd5b506102da6105083660046129a6565b6001600160a01b031660009081526008602052604090205490565b34801561052f57600080fd5b5061023361053e366004612b1a565b611c1a565b34801561054f57600080fd5b506102da61055e36600461298d565b60076020526000908152604090205481565b34801561057c57600080fd5b5061025561058b3660046129eb565b611d5a565b34801561059c57600080fd5b506102336105ab366004612d1d565b611d83565b3480156105bc57600080fd5b506102336105cb3660046129a6565b611e1a565b3480156105dc57600080fd5b506102da600081565b3480156105f157600080fd5b5061023361060036600461298d565b611e4a565b34801561061157600080fd5b506102336106203660046129a6565b611f42565b34801561063157600080fd5b506102da611f72565b34801561064657600080fd5b506102336106553660046129eb565b611f8e565b34801561066657600080fd5b5061036861067536600461298d565b611fb3565b34801561068657600080fd5b5061069a61069536600461298d565b612199565b60405161026199989796959493929190612d52565b3480156106bb57600080fd5b506106cf6106ca36600461298d565b612305565b60405161026196959493929190612dc2565b3480156106ed57600080fd5b506102da6106fc3660046129a6565b60086020526000908152604090205481565b34801561071a57600080fd5b506102da612458565b60008481526005602052604090206001015484906001600160a01b031633146107675760405162461bcd60e51b815260040161075e90612e19565b60405180910390fd5b6000858152600560205260408120548691036107955760405162461bcd60e51b815260040161075e90612e46565b60008181526005602052604090206006015460ff166107c65760405162461bcd60e51b815260040161075e90612e7d565b600085116108165760405162461bcd60e51b815260206004820152601c60248201527f5072696365206d7573742062652067726561746572207468616e203000000000604482015260640161075e565b60008681526005602081905260409091206004810154910154106108705760405162461bcd60e51b815260206004820152601160248201527011dc985d995e585c99081a5cc8199d5b1b607a1b604482015260640161075e565b600061087b60035490565b905061088b600380546001019055565b604080516101208101825282815260208082018a905260008a815260058252838120600101546001600160a01b031683850152606083018a90526080830181905260a08301528251601f8801829004820281018201909352868352909160c0830191889088908190840183828082843760009201829052509385525050604080516020818101835284825280860191909152938101839052858352600480855292819020855181559385015160018501558401516002840180546001600160a01b039092166001600160a01b031990921691909117905550606083015160038301556080830151908201805460a085015115156101000261ff00199315159390931661ffff199091161791909117905560c082015160058201906109af9082612f4c565b5060e082015160068201906109c49082612f4c565b50610100919091015160079182015560008881526005602081815260408084209092018054600181018255908452818420018590558483529290925281902088905551879082907f6d023ad6a718a9c1ab90e85c6247673d0d388e4b57696820dab5bc78c120c90790610a3c908a908a908a90613035565b60405180910390a350505050505050565b60006001600160e01b03198216637965db0b60e01b1480610a7e57506301ffc9a760e01b6001600160e01b03198316145b92915050565b6000805160206132fe833981519152610a9c81612465565b6001600160a01b038716610aea5760405162461bcd60e51b8152602060048201526015602482015274496e76616c6964206f776e6572206164647265737360581b604482015260640161075e565b84610b2e5760405162461bcd60e51b81526020600482015260146024820152734e616d652063616e6e6f7420626520656d70747960601b604482015260640161075e565b60008211610b7e5760405162461bcd60e51b815260206004820152601b60248201527f4d7573742068617665206174206c65617374206f6e6520706c6f740000000000604482015260640161075e565b6000610b8960025490565b9050610b99600280546001019055565b6040518060e00160405280828152602001896001600160a01b0316815260200188888080601f016020809104026020016040519081016040528093929190818152602001838380828437600092019190915250505090825250604080516020601f8901819004810282018101909252878152918101919088908890819084018382808284376000920182905250938552505050602080830187905260408051838152808301825281850152600160609094018490528583526005825291829020845181559084015192810180546001600160a01b0319166001600160a01b03909416939093179092558201516002820190610c949082612f4c565b5060608201516003820190610ca99082612f4c565b506080820151600482015560a08201518051610ccf9160058401916020909101906127c2565b5060c091909101516006909101805460ff19169115159190911790556040516001600160a01b0389169082907f304082ca5eb2311b2a6377d36c5fbc00d744a9c205a90c6348c8782e548a672a90610d2e908b908b908b908b90613058565b60405180910390a35050505050505050565b60008181526004602052604081205482908203610d6f5760405162461bcd60e51b815260040161075e9061308a565b6000838152600460208190526040909120015460ff1691505b50919050565b6000610a7e6000805160206132fe83398151915283611d5a565b60066020528160005260406000208181548110610dc457600080fd5b90600052602060002001600091509150505481565b600082815260208190526040902060010154610df481612465565b610dfe8383612472565b505050565b60008181526005602052604081205460609103610e325760405162461bcd60e51b815260040161075e90612e46565b60008281526005602081815260409283902090910180548351818402810184019094528084529091830182828015610e8957602002820191906000526020600020905b815481526020019060010190808311610e75575b50505050509050919050565b6001600160a01b0381163314610f055760405162461bcd60e51b815260206004820152602f60248201527f416363657373436f6e74726f6c3a2063616e206f6e6c792072656e6f756e636560448201526e103937b632b9903337b91039b2b63360891b606482015260840161075e565b610f0f82826124f6565b5050565b60008581526005602052604090206001015485906001600160a01b03163314610f4e5760405162461bcd60e51b815260040161075e90612e19565b600086815260056020526040812054879103610f7c5760405162461bcd60e51b815260040161075e90612e46565b60008181526005602052604090206006015460ff16610fad5760405162461bcd60e51b815260040161075e90612e7d565b848314610ff55760405162461bcd60e51b8152602060048201526016602482015275082e4e4c2f2e640d8cadccee8d040dad2e6dac2e8c6d60531b604482015260640161075e565b600087815260056020819052604090912060048101549101546110199087906130ce565b11156110675760405162461bcd60e51b815260206004820152601f60248201527f576f756c64206578636565642067726176657961726420636170616369747900604482015260640161075e565b60005b8581101561133f576000878783818110611086576110866130e1565b90506020020135116110da5760405162461bcd60e51b815260206004820152601c60248201527f5072696365206d7573742062652067726561746572207468616e203000000000604482015260640161075e565b60006110e560035490565b90506110f5600380546001019055565b604080516101208101825282815260208082018c905260008c81526005909152829020600101546001600160a01b03169181019190915260608101898985818110611142576111426130e1565b905060200201358152602001600015158152602001600015158152602001878785818110611172576111726130e1565b905060200281019061118491906130f7565b8080601f01602080910402602001604051908101604052809392919081815260200183838082843760009201829052509385525050604080516020818101835284825280860191909152938101839052858352600480855292819020855181559385015160018501558401516002840180546001600160a01b039092166001600160a01b031990921691909117905550606083015160038301556080830151908201805460a085015115156101000261ff00199315159390931661ffff199091161791909117905560c082015160058201906112609082612f4c565b5060e082015160068201906112759082612f4c565b50610100919091015160079182015560008a8152600560208181526040808420909201805460018101825590845281842001859055848352929092522089905588817f6d023ad6a718a9c1ab90e85c6247673d0d388e4b57696820dab5bc78c120c9078a8a868181106112ea576112ea6130e1565b90506020020135898987818110611303576113036130e1565b905060200281019061131591906130f7565b60405161132493929190613035565b60405180910390a350806113378161313e565b91505061106a565b5050505050505050565b61135161255b565b33600090815260086020526040902054806113a55760405162461bcd60e51b81526020600482015260146024820152734e6f2066756e647320746f20776974686472617760601b604482015260640161075e565b336000818152600860205260408082208290555190919083908381818185875af1925050503d80600081146113f6576040519150601f19603f3d011682016040523d82523d6000602084013e6113fb565b606091505b505090508061143e5760405162461bcd60e51b815260206004820152600f60248201526e151c985b9cd9995c8819985a5b1959608a1b604482015260640161075e565b60405182815233907feaff4b37086828766ad3268786972c0cd24259d4c87a80f9d3963a3c3d999b0d9060200160405180910390a2505061147e60018055565b565b6000610a7e7f1ca18e4f40644e9556cd529acc99fc94235b73e5bafb1de212a869dc75d4bb9183611d5a565b6114b461255b565b6000838152600460205260408120548491036114e25760405162461bcd60e51b815260040161075e9061308a565b60008481526004602081905260409091209081015460ff16156115405760405162461bcd60e51b815260206004820152601660248201527511dc985d9948185b1c9958591e481c995cd95c9d995960521b604482015260640161075e565b806003015434146115935760405162461bcd60e51b815260206004820152601860248201527f496e636f7272656374207061796d656e7420616d6f756e740000000000000000604482015260640161075e565b600181015460009081526005602052604090206006015460ff166115c95760405162461bcd60e51b815260040161075e90612e7d565b6002810180546001600160a01b03198116331790915560048201805460ff191660011790556001600160a01b031660068201611606858783613157565b504260078301553360009081526006602090815260408083208054600181018255908452828420018990556001600160a01b03841683526008909152812080543492906116549084906130ce565b909155505060408051348152426020820152339188917f3ba23bcd8d567cc2584926a93608ac3d7841c82e6611adfd46f09d5e2f1ba4a1910160405180910390a3806001600160a01b0316336001600160a01b0316877f3d2a1787f1b9bf1c2032e9fb308aa647ecce9fe123f74ae268e8ece2d49dea1b346040516116db91815260200190565b60405180910390a4505050610dfe60018055565b6001600160a01b038116600090815260066020908152604091829020805483518184028101840190945280845260609392830182828015610e895760200282019190600052602060002090815481526020019060010190808311610e755750505050509050919050565b6117b5604051806101200160405280600081526020016000815260200160006001600160a01b03168152602001600081526020016000151581526020016000151581526020016060815260200160608152602001600081525090565b6000828152600460205260408120548391036117e35760405162461bcd60e51b815260040161075e9061308a565b6000838152600460208181526040928390208351610120810185528154815260018201549281019290925260028101546001600160a01b031693820193909352600383015460608201529082015460ff8082161515608084015261010090910416151560a082015260058201805491929160c08401919061186390612eca565b80601f016020809104026020016040519081016040528092919081815260200182805461188f90612eca565b80156118dc5780601f106118b1576101008083540402835291602001916118dc565b820191906000526020600020905b8154815290600101906020018083116118bf57829003601f168201915b505050505081526020016006820180546118f590612eca565b80601f016020809104026020016040519081016040528092919081815260200182805461192190612eca565b801561196e5780601f106119435761010080835404028352916020019161196e565b820191906000526020600020905b81548152906001019060200180831161195157829003601f168201915b50505050508152602001600782015481525050915050919050565b6000805160206132fe8339815191526119a181612465565b610f0f7f1ca18e4f40644e9556cd529acc99fc94235b73e5bafb1de212a869dc75d4bb9183610dd9565b611a166040518060e001604052806000815260200160006001600160a01b03168152602001606081526020016060815260200160008152602001606081526020016000151581525090565b6000828152600560205260408120549003611a435760405162461bcd60e51b815260040161075e90612e46565b600082815260056020908152604091829020825160e0810184528154815260018201546001600160a01b0316928101929092526002810180549293919291840191611a8d90612eca565b80601f0160208091040260200160405190810160405280929190818152602001828054611ab990612eca565b8015611b065780601f10611adb57610100808354040283529160200191611b06565b820191906000526020600020905b815481529060010190602001808311611ae957829003601f168201915b50505050508152602001600382018054611b1f90612eca565b80601f0160208091040260200160405190810160405280929190818152602001828054611b4b90612eca565b8015611b985780601f10611b6d57610100808354040283529160200191611b98565b820191906000526020600020905b815481529060010190602001808311611b7b57829003601f168201915b505050505081526020016004820154815260200160058201805480602002602001604051908101604052809291908181526020018280548015611bfa57602002820191906000526020600020905b815481526020019060010190808311611be6575b50505091835250506006919091015460ff16151560209091015292915050565b600083815260046020526040812054849103611c485760405162461bcd60e51b815260040161075e9061308a565b60008481526004602052604090206002015484906001600160a01b03163314611ca55760405162461bcd60e51b815260206004820152600f60248201526e2737ba1033b930bb329037bbb732b960891b604482015260640161075e565b6000858152600460208190526040909120015460ff16611cfc5760405162461bcd60e51b815260206004820152601260248201527111dc985d99481b9bdd081c995cd95c9d995960721b604482015260640161075e565b6000858152600460205260409020600601611d18848683613157565b50847f459157ba24c7ab9878b165ef465fa6ae2ab42bcd8445f576be378768b0c473098585604051611d4b929190613218565b60405180910390a25050505050565b6000918252602082815260408084206001600160a01b0393909316845291905290205460ff1690565b60008281526005602052604090206001015482906001600160a01b03163314611dbe5760405162461bcd60e51b815260040161075e90612e19565b600083815260056020908152604091829020600601805460ff1916851515908117909155915191825284917fd02326bff4c2a1e92cce5baba19ac2fd8f0e03a8edb6b0ed8a4d7c873ead24d291015b60405180910390a2505050565b6000805160206132fe833981519152611e3281612465565b610f0f6000805160206132fe83398151915283611f8e565b600081815260046020526040812054829103611e785760405162461bcd60e51b815260040161075e9061308a565b6000828152600760209081526040808320548084526005909252909120600101546001600160a01b03163314611ef05760405162461bcd60e51b815260206004820152601a60248201527f4e6f7420617574686f72697a656420746f206d61696e7461696e000000000000604482015260640161075e565b60008381526004602081905260409182902001805461ff0019166101001790555183907f8ff4520facece4c7f78fbd228bd0daee7174cac9073b19dd26f8fa84f162b75490611e0d9042815260200190565b6000805160206132fe833981519152611f5a81612465565b610f0f6000805160206132fe83398151915283610dd9565b60006001611f7f60035490565b611f899190613234565b905090565b600082815260208190526040902060010154611fa981612465565b610dfe83836124f6565b60008181526005602052604081205460609103611fe25760405162461bcd60e51b815260040161075e90612e46565b60008281526005602081815260408084209092018054835181840281018401909452808452909183018282801561203857602002820191906000526020600020905b815481526020019060010190808311612024575b505050505090506000805b82518110156120a75760046000848381518110612062576120626130e1565b60209081029190910181015182528101919091526040016000206004015460ff1661209557816120918161313e565b9250505b8061209f8161313e565b915050612043565b5060008167ffffffffffffffff8111156120c3576120c3612eb4565b6040519080825280602002602001820160405280156120ec578160200160208202803683370190505b5090506000805b845181101561218e5760046000868381518110612112576121126130e1565b60209081029190910181015182528101919091526040016000206004015460ff1661217c57848181518110612149576121496130e1565b6020026020010151838381518110612163576121636130e1565b6020908102919091010152816121788161313e565b9250505b806121868161313e565b9150506120f3565b509095945050505050565b6004602081905260009182526040909120805460018201546002830154600384015494840154600585018054949693956001600160a01b039093169460ff80841694610100909404169291906121ee90612eca565b80601f016020809104026020016040519081016040528092919081815260200182805461221a90612eca565b80156122675780601f1061223c57610100808354040283529160200191612267565b820191906000526020600020905b81548152906001019060200180831161224a57829003601f168201915b50505050509080600601805461227c90612eca565b80601f01602080910402602001604051908101604052809291908181526020018280546122a890612eca565b80156122f55780601f106122ca576101008083540402835291602001916122f5565b820191906000526020600020905b8154815290600101906020018083116122d857829003601f168201915b5050505050908060070154905089565b60056020526000908152604090208054600182015460028301805492936001600160a01b039092169261233790612eca565b80601f016020809104026020016040519081016040528092919081815260200182805461236390612eca565b80156123b05780601f10612385576101008083540402835291602001916123b0565b820191906000526020600020905b81548152906001019060200180831161239357829003601f168201915b5050505050908060030180546123c590612eca565b80601f01602080910402602001604051908101604052809291908181526020018280546123f190612eca565b801561243e5780601f106124135761010080835404028352916020019161243e565b820191906000526020600020905b81548152906001019060200180831161242157829003601f168201915b50505050600483015460069093015491929160ff16905086565b60006001611f7f60025490565b61246f81336125b4565b50565b61247c8282611d5a565b610f0f576000828152602081815260408083206001600160a01b03851684529091529020805460ff191660011790556124b23390565b6001600160a01b0316816001600160a01b0316837f2f8788117e7eff1d82e926ec794901d17c78024a50270940304540a733656f0d60405160405180910390a45050565b6125008282611d5a565b15610f0f576000828152602081815260408083206001600160a01b0385168085529252808320805460ff1916905551339285917ff6391f5c32d9c69d2a47ea670b442974b53935d1edc7fd64eb21e047a839171b9190a45050565b6002600154036125ad5760405162461bcd60e51b815260206004820152601f60248201527f5265656e7472616e637947756172643a207265656e7472616e742063616c6c00604482015260640161075e565b6002600155565b6125be8282611d5a565b610f0f576125cb8161260d565b6125d683602061261f565b6040516020016125e7929190613247565b60408051601f198184030181529082905262461bcd60e51b825261075e916004016132bc565b6060610a7e6001600160a01b03831660145b6060600061262e8360026132cf565b6126399060026130ce565b67ffffffffffffffff81111561265157612651612eb4565b6040519080825280601f01601f19166020018201604052801561267b576020820181803683370190505b509050600360fc1b81600081518110612696576126966130e1565b60200101906001600160f81b031916908160001a905350600f60fb1b816001815181106126c5576126c56130e1565b60200101906001600160f81b031916908160001a90535060006126e98460026132cf565b6126f49060016130ce565b90505b600181111561276c576f181899199a1a9b1b9c1cb0b131b232b360811b85600f1660108110612728576127286130e1565b1a60f81b82828151811061273e5761273e6130e1565b60200101906001600160f81b031916908160001a90535060049490941c93612765816132e6565b90506126f7565b5083156127bb5760405162461bcd60e51b815260206004820181905260248201527f537472696e67733a20686578206c656e67746820696e73756666696369656e74604482015260640161075e565b9392505050565b8280548282559060005260206000209081019282156127fd579160200282015b828111156127fd5782518255916020019190600101906127e2565b5061280992915061280d565b5090565b5b80821115612809576000815560010161280e565b60008083601f84011261283457600080fd5b50813567ffffffffffffffff81111561284c57600080fd5b60208301915083602082850101111561286457600080fd5b9250929050565b6000806000806060858703121561288157600080fd5b8435935060208501359250604085013567ffffffffffffffff8111156128a657600080fd5b6128b287828801612822565b95989497509550505050565b6000602082840312156128d057600080fd5b81356001600160e01b0319811681146127bb57600080fd5b80356001600160a01b03811681146128ff57600080fd5b919050565b6000806000806000806080878903121561291d57600080fd5b612926876128e8565b9550602087013567ffffffffffffffff8082111561294357600080fd5b61294f8a838b01612822565b9097509550604089013591508082111561296857600080fd5b5061297589828a01612822565b979a9699509497949695606090950135949350505050565b60006020828403121561299f57600080fd5b5035919050565b6000602082840312156129b857600080fd5b6127bb826128e8565b600080604083850312156129d457600080fd5b6129dd836128e8565b946020939093013593505050565b600080604083850312156129fe57600080fd5b82359150612a0e602084016128e8565b90509250929050565b6020808252825182820181905260009190848201906040850190845b81811015612a4f57835183529284019291840191600101612a33565b50909695505050505050565b60008083601f840112612a6d57600080fd5b50813567ffffffffffffffff811115612a8557600080fd5b6020830191508360208260051b850101111561286457600080fd5b600080600080600060608688031215612ab857600080fd5b85359450602086013567ffffffffffffffff80821115612ad757600080fd5b612ae389838a01612a5b565b90965094506040880135915080821115612afc57600080fd5b50612b0988828901612a5b565b969995985093965092949392505050565b600080600060408486031215612b2f57600080fd5b83359250602084013567ffffffffffffffff811115612b4d57600080fd5b612b5986828701612822565b9497909650939450505050565b60005b83811015612b81578181015183820152602001612b69565b50506000910152565b60008151808452612ba2816020860160208601612b66565b601f01601f19169290920160200192915050565b60208152815160208201526020820151604082015260006040830151612be760608401826001600160a01b03169052565b50606083015160808301526080830151612c0560a084018215159052565b5060a083015180151560c08401525060c08301516101208060e0850152612c30610140850183612b8a565b915060e0850151610100601f198685030181870152612c4f8483612b8a565b9601519190940152509192915050565b6000602080835283518184015260018060a01b0381850151166040840152604084015160e06060850152612c97610100850182612b8a565b90506060850151601f1980868403016080870152612cb58383612b8a565b608088015160a08881019190915288015187820390920160c088015281518082529185019350600092508401905b80831015612d035783518252928401926001929092019190840190612ce3565b5060c087015180151560e088015293509695505050505050565b60008060408385031215612d3057600080fd5b8235915060208301358015158114612d4757600080fd5b809150509250929050565b60006101208b83528a602084015260018060a01b038a166040840152886060840152871515608084015286151560a08401528060c0840152612d9681840187612b8a565b905082810360e0840152612daa8186612b8a565b915050826101008301529a9950505050505050505050565b8681526001600160a01b038616602082015260c060408201819052600090612dec90830187612b8a565b8281036060840152612dfe8187612b8a565b6080840195909552505090151560a090910152949350505050565b6020808252601390820152722737ba1033b930bb32bcb0b9321037bbb732b960691b604082015260600190565b60208082526018908201527f47726176657961726420646f6573206e6f742065786973740000000000000000604082015260600190565b60208082526017908201527f477261766579617264206973206e6f7420616374697665000000000000000000604082015260600190565b634e487b7160e01b600052604160045260246000fd5b600181811c90821680612ede57607f821691505b602082108103610d8857634e487b7160e01b600052602260045260246000fd5b601f821115610dfe57600081815260208120601f850160051c81016020861015612f255750805b601f850160051c820191505b81811015612f4457828155600101612f31565b505050505050565b815167ffffffffffffffff811115612f6657612f66612eb4565b612f7a81612f748454612eca565b84612efe565b602080601f831160018114612faf5760008415612f975750858301515b600019600386901b1c1916600185901b178555612f44565b600085815260208120601f198616915b82811015612fde57888601518255948401946001909101908401612fbf565b5085821015612ffc5787850151600019600388901b60f8161c191681555b5050505050600190811b01905550565b81835281816020850137506000828201602090810191909152601f909101601f19169091010190565b83815260406020820152600061304f60408301848661300c565b95945050505050565b60408152600061306c60408301868861300c565b828103602084015261307f81858761300c565b979650505050505050565b60208082526014908201527311dc985d9948191bd95cc81b9bdd08195e1a5cdd60621b604082015260600190565b634e487b7160e01b600052601160045260246000fd5b80820180821115610a7e57610a7e6130b8565b634e487b7160e01b600052603260045260246000fd5b6000808335601e1984360301811261310e57600080fd5b83018035915067ffffffffffffffff82111561312957600080fd5b60200191503681900382131561286457600080fd5b600060018201613150576131506130b8565b5060010190565b67ffffffffffffffff83111561316f5761316f612eb4565b6131838361317d8354612eca565b83612efe565b6000601f8411600181146131b7576000851561319f5750838201355b600019600387901b1c1916600186901b178355613211565b600083815260209020601f19861690835b828110156131e857868501358255602094850194600190920191016131c8565b50868210156132055760001960f88860031b161c19848701351681555b505060018560011b0183555b5050505050565b60208152600061322c60208301848661300c565b949350505050565b81810381811115610a7e57610a7e6130b8565b7f416363657373436f6e74726f6c3a206163636f756e742000000000000000000081526000835161327f816017850160208801612b66565b7001034b99036b4b9b9b4b733903937b6329607d1b60179184019182015283516132b0816028840160208801612b66565b01602801949350505050565b6020815260006127bb6020830184612b8a565b8082028115828204841417610a7e57610a7e6130b8565b6000816132f5576132f56130b8565b50600019019056fea49807205ce4d355092ef5a8a18f56e8913cf4a201fbe287825b095693c21775a264697066735822122075ec9c32cd649bc0ea4e41e94bf187242db8358aca8d960917d27f248ffaa18564736f6c63430008140033",
  "linkReferences": {},
  "deployedLinkReferences": {}
}